:040000000AEF0EF005
:1000080000C018F001C017F00CC016F00DC015F0B4
:10001800F2A002D094EC0CF018C000F017C001F068
:0A00280016C00CF015C00DF0110019
:080032000AAE029E000E12004E
:10003A000B840BAE28EF00F0010E036E026A016A10
:0A004A00006A0A360232FF0E1200AF
:0E005400026A016A006A086A036A000E12005E
:100062000B820BAE3BEF00F0036802680168006888
:080072000A360232FF0E1200F3
:10007A000CB07FEF00F00CA225EF01F00E6A000E23
:10008A00026496EF00F0F00E0214D8A461EF00F0BB
:10009A00023A01380F0B02260138F00B016E0038C4
:1000AA000F0B01260038F00B006E08380F0B0026E4
:1000BA000838F00B086E0E84D89002BE7AEF00F072
:1000CA0008360036013602360E2A02BE7AEF00F0F2
:1000DA0008360036013602360E2A02BE7AEF00F0E2
:1000EA0008360036013602360E2A0E5003641BEF1C
:1000FA0001F0035E0BBC08AE20EF01F0D880800E41
:10010A0008640030000E002201220222D8A020EF4B
:10011A0001F0023201320032034A25EF01F020EFEA
:10012A0001F001C002F000C001F008C000F0086A46
:10013A00000E0E860264CDEF00F0F00E0214D8A471
:10014A00B5EF00F0023A01380F0B02260138F00B26
:10015A00016E00380F0B01260038F00B006E0E847A
:10016A00D89002BE7AEF00F00036013602360E2A27
:10017A0002BE7AEF00F00036013602360E2A02BEBF
:10018A007AEF00F00036013602360E2A7AEF00F0D6
:10019A0001C002F000C001F0006A000E0E960E883F
:1001AA000264FAEF00F0F00E0214D8A4E5EF00F0B2
:1001BA00023A01380F0B02260138F00B016E0E8449
:1001CA00D89002BE7AEF00F0013602360E2A02BE3D
:1001DA007AEF00F0013602360E2A02BE7AEF00F0FC
:1001EA00013602360E2A7AEF00F001C002F0016AE7
:1001FA00000E0E8602642AEF01F0F00E0214D8A453
:10020A0009EF01F0023A0E84D89002BE7AEF00F0AC
:10021A0002360E2A02BE7AEF00F002360E2A02BE1B
:10022A007AEF00F002360E2A7AEF00F0010E0C6E19
:10023A00FFDE2DEF01F0020E0C6EF6DE2DEF01F05F
:10024A00040E0C6E09DF2DEF01F0080E0C6EFDDEB8
:02025A00120090
:10025C000B800BAE3AEF01F0026A0AAEFF0E026E93
:0C026C00016E006E0A360232FF0E120016
:10027800025006180E6E086A096A0B6A0350076472
:100288002FEF02F006500A6E068E028E03500B6E98
:100298000750036E000E0B647FEF01F00B50075EF2
:1002A800D8B420EF02F0070E0764EEEF01F0075E06
:1002B80000C008F001C000F002C001F0026A074E59
:1002C80020EF02F00764C3EF01F0075E00C008F0FA
:1002D80001C000F0016A074E20EF02F00764A1EFA9
:1002E80001F0075E00C008F0006A074E20EF02F038
:1002F800076488EF01F00AC002F005C001F004C0ED
:1003080000F0086A49EF03F0030E076493EF01F069
:10031800075E08380F0B086E074E20EF02F0D890E2
:100328000832074E20EF02F0D8900832074E20EF2F
:1003380002F0D890083220EF02F0030E0764B2EF03
:1003480001F0075E08380F0B086E0038F00B08261E
:1003580000380F0B006E074E20EF02F0D8900032E5
:100368000832074E20EF02F0D89000320832074ECC
:1003780020EF02F0D8900032083220EF02F0030E8E
:100388000764DAEF01F0075E08380F0B086E0038D3
:10039800F00B082600380F0B006E0138F00B002612
:1003A80001380F0B016E074E20EF02F0D890013292
:1003B80000320832074E20EF02F0D89001320032A6
:1003C8000832074E20EF02F0D8900132003208328E
:1003D80020EF02F0030E07640BEF02F0075E083807
:1003E8000F0B086E0038F00B082600380F0B006E54
:1003F8000138F00B002601380F0B016E0238F00BA4
:10040800012602380F0B026E074E20EF02F0D8903B
:100418000232013200320832074E20EF02F0D89043
:100428000232013200320832074E20EF02F0D89033
:100438000232013200320832096A000E0EAE14EFA1
:1004480003F0081E001E011E021E082A00220122B7
:10045800022214EF03F00750D8A435EF02F049EF59
:1004680003F0096A02C00AF0028E068E0750035C88
:10047800076ED8B407EF03F0070E0764D5EF02F054
:10048800075E0450096E0550046E0650056E066A34
:10049800074E07EF03F0070E0764AAEF02F0075EA6
:1004A8000450096E0550046E056A074E07EF03F005
:1004B800070E076488EF02F0075E0450096E046AAD
:1004C800074E07EF03F0070E07646FEF02F00AC04C
:1004D80002F049EF03F0030E07647AEF02F0075EBB
:1004E80009380F0B096E074E07EF03F0D890093251
:1004F800074E07EF03F0D8900932074E07EF03F0D5
:10050800D890093207EF03F0030E076499EF02F061
:10051800075E09380F0B096E0438F00B09260438FA
:100528000F0B046E074E07EF03F0D8900432093220
:10053800074E07EF03F0D89004320932074E07EF51
:1005480003F0D8900432093207EF03F0030E076472
:10055800C1EF02F0075E09380F0B096E0438F00B83
:10056800092604380F0B046E0538F00B04260538ED
:100578000F0B056E074E07EF03F0D89005320432D3
:100588000932074E07EF03F0D890053204320932DA
:10059800074E07EF03F0D89005320432093207EF0F
:1005A80003F0030E0764F2EF02F0075E09380F0B41
:1005B800096E0438F00B092604380F0B046E053851
:1005C800F00B042605380F0B056E0638F00B0526D0
:1005D80006380F0B066E074E07EF03F0D890063269
:1005E800053204320932074E07EF03F0D89006327D
:1005F800053204320932074E07EF03F0D89006326D
:10060800053204320932086A000E0EAE14EF03F008
:10061800091E041E051E061E092A0422052206229A
:1006280009500826045000220550012206500222D3
:100638000EBE2BEF03F0D8A03AEF03F002320132DE
:1006480000320832033E3AEF03F044EF03F0D8B02B
:100658003FEF03F0000E081E001E011E021E082AAE
:100668000022012202220A7E3FEF03F0010E0C6EE7
:1006780000DD4BEF03F0020E0C6EFBDC4BEF03F0DA
:10068800040E0C6EEADC4BEF03F0000E0C6E120049
:100698000B6A0C6A086A0350D8B4D0EF03F002C0A2
:1006A8000AF0028E9E0E035E03AEC0EF03F0036CE9
:1006B800080E035CD8A08DEF03F0036E083600C067
:1006C80008F001C000F002C001F0026A080E035CE5
:1006D800D8A08DEF03F0036E083600C008F001C003
:1006E80000F0016A080E035CD8A08DEF03F0036EDA
:1006F800083600C008F0006A080E035CD8A08DEF29
:1007080003F0036E0836086A0350D8A4D89099EF0E
:1007180003F00350D8B499EF03F0D89002320132B5
:1007280000320832032E91EF03F00BBC08A0AAEFA9
:1007380003F0D8A0AAEF03F0082AD8B4002AD8B446
:10074800012AD8B4022A02BED4EF03F00AAED0EFD1
:1007580003F0021E011E001E081E082AD8B4002A33
:10076800D8B4012AD8B4022AD0EF03F0026A016A89
:10077800006A086AD0EF03F00B800BAEDAEF03F0E3
:10078800026A0AAEDAEF03F0026E016E006E086EBE
:100798000A360232DAEF03F00C6A000EDBEF03F0E0
:1007A800010E0C6E000E56DDDBEF03F0FF0E02505B
:1007B800036E0150026E0050016E0850006E120068
:0607C800067E56DD120062
:1007CE000050086E0150006E0250016E0350026E12
:1007DE00036A0B6A0C6A9E0E036E0A6A02AE04EF7F
:1007EE0004F0081E001E011E021E082AD8B4002A9C
:1007FE00D8B4012AD8B4022A0A8E020E0C6E36DC48
:02080E001200D6
:080810000B6A0B86FF0E1200BB
:100818000C6A0E6A0250D8A425EF04F001C002F059
:1008280000C001F0006A0E860250D8A425EF04F03B
:1008380001C002F0016A0E960E880250D8B437EF54
:1008480004F00E50035ED8A4D8A03DEF04F0D89071
:1008580002BE43EF04F0003601360236032E2CEFB9
:1008680004F03DEF04F0010E0C6E2AEC00F047EFA7
:1008780004F0020E0C6E1DEC00F047EF04F0040EBD
:080888000C6E19EC00F01200E7
:100890000A6A0350D8A40A800750D8A40A820A50D2
:1008A000D8B4ABEF04F0030AD8B464EF04F00AB094
:1008B0005FEF04F006AEA9EF04F0A7EF04F002AE7C
:1008C000A7EF04F0A9EF04F00250800B0A6E029E1D
:1008D0000650800B069E0A18D8B475EF04F00A5033
:1008E000D8B4A7EF04F0A9EF04F00750035CD8B424
:1008F0007FEF04F0D8A09BEF04F0A1EF04F00650C6
:10090000025CD8B489EF04F0D8A09BEF04F0A1EF0B
:1009100004F00550015CD8B493EF04F0D8A09BEF2D
:1009200004F0A1EF04F00450005CD8B4ABEF04F085
:10093000D8B0A1EF04F00A52D8B4A9EF04F0A7EFA1
:1009400004F00A52D8B4A7EF04F0A9EF04F0D8805D
:0E0950001200D8901200D880D8841200120035
:10095E00086A096A000E0762036434EF05F002505C
:10096E0006180A6E075003267E0ED8A0C5EF04F0B7
:10097E00035ED8B039EF05F0C9EF04F0035ED8A0DE
:10098E003EEF05F0028E068E02C00EF001C00BF097
:10099E0000C00DF000500402F4CF0CF0015005021F
:1009AE00F4CF00F0F3CF08F00402F3500C26F4500D
:1009BE000822000E00220D500502F3500C26F450B2
:1009CE000822000E002202500402F3500826F450B2
:1009DE00002202500502016A000E0122F350002689
:1009EE00F45001220D500602F3500826F450002256
:1009FE00026A000E012202220B500602F35000265C
:100A0E00F4500122000E02220E500602F35001266F
:100A1E00F450022202BE1CEF05F0083600360136F5
:100A2E0002360306D8B43EEF05F02FEF05F0D8805E
:100A3E00800E08640030000E002201220222D8A08F
:100A4E002FEF05F0023201320032034A39EF05F082
:100A5E000AAE029E000E41EF05F0010E2AEC00F0E8
:100A6E0041EF05F0020E31EC00F041EF05F0040EFF
:060A7E001DEC00F0120067
:100A84000B6A0350D8B488EF05F002500A6E028E48
:100A94008E0E035E03AE8CEF05F0036C080E035C50
:100AA400D8A067EF05F0036E013602C001F0026AB8
:100AB400080E035CD8A067EF05F0036E0136016AE7
:100AC4000350D8A4D89071EF05F00350D8B471EF57
:100AD40005F0D89002320132032E6BEF05F00BBC07
:100AE40001A07EEF05F0D8A07EEF05F0012AD8B46E
:100AF400022A02BE9BEF05F00AAEA1EF05F0021E2A
:100B0400011E012AD8B4022AA1EF05F0026A016A83
:100B1400A1EF05F00B800BAEA5EF05F0026A0AAE5B
:100B2400A5EF05F0FF0E026E016E0A360232A5EF44
:100B340005F0010E0C6E2EEC01F0A7EF05F0000E8F
:100B44000C6EA7EF05F0FF0E0C6E0150006E025004
:040B5400016E12001C
:100B5800810E7B6E000E7C6E030E7B24D96E000E18
:100B68007C20DA6EDE5000018525016E000E86219C
:100B7800026E01C085F002C086F0800E0218006E79
:100B8800800E005C02E1000E015C05E2006A016A69
:100B9800026A036A3ED0800E006E800E8619005CE1
:100BA80002E18551FF0825E2046A056A066A076AB8
:100BB80081C000F082C001F083C002F084C003F05D
:100BC80063DE010ED8B0000E006E005209E0FF0E81
:100BD800006EFF0E016EFF0E026EFF0E036E19D03F
:100BE800FF0E006EFF0E016E7F0E026EFF0E036E8B
:100BF80010D0030E7B24E16E000E7C20E26E85C0CF
:100C0800E6FF81C000F082C001F083C002F084C01A
:040C180003F01200D3
:100C1C000134083609360450085E0550D8A0053C4E
:100C2C00095E003601360F0E0C6E0134083609369B
:100C3C00045000A006D0085E0550D8A0053C095E03
:100C4C0005D008260550D8B0053C092600360136DB
:100C5C000C2EEBD700B006D0045008260550D8B0A7
:080C6C00053C092600001200FE
:100C7400810E046E000E056E030E0424E96E000E50
:100C84000520EA6E7E0EEE5C006E016A000E015ACB
:100C940085C0E1FF86C0E2FF00C0E6FF01C0E6FFB9
:100CA400030E0424E16E000E0520E26E7E0EE66E55
:100CB40081C000F082C001F083C002F084C003F060
:020CC40012001C
:0C0CC60000000000000000000000120010
:0A0CD200530E0D6E0D2EFED712001A
:100CDC000450000A12E10550000A0FE10650000A08
:100CEC000CE10750000A09E1FF0E006EFF0E016EC9
:100CFC007F0E026EFF0E036EA7D0086A096A0750BA
:100D0C00D8B419EF07F00350D8B41DEF07F0025018
:100D1C0006180A6E028E068E0E6A02C008F001C01A
:100D2C000CF000C00DF004500D5E0550D8A0053C31
:100D3C000C5E0650D8A0063C085E086A0C6A0D6A68
:100D4C00D8A0B0EF06F0D89002320132003208324F
:100D5C00010E0E6E0750035ED8A0BDEF06F07E0E9E
:100D6C000E240326D8B022EF07F0C3EF06F07E0E58
:100D7C000E240326D8A027EF07F0180E0B6E0D36A5
:100D8C000C3608360036013602360E360450005E3C
:100D9C000550D8A0053C015E0650D8A0063C025E6A
:100DAC0006340E120EA0DEEF06F00D80E9EF06F011
:100DBC00045000260550D8B0053C01260650D8B08A
:100DCC00062802260D900B2EC5EF06F00FEF07F04C
:100DDC00D8900036013602360E360450005E0550AF
:100DEC00D8A0053C015E0650D8A0063C025E063435
:100DFC000E10010B0D26D8B00C2AD8B4082AD8A492
:100E0C000FEF07F008320C320D32032AD8B422EF60
:100E1C0007F00AAE089E0850026E0C50016E0D5081
:100E2C00006E2AEF07F0010EEDDC2AEF07F0020E40
:100E3C002AEC00F02AEF07F0040E31EC00F02AEF58
:0A0E4C0007F0080E1DEC00F0120084
:100E5600240E0C6EB50E0D6E0D2EFED70C2EFCD785
:060E660000000000120074
:100E6C0003500718D8A44AEF07F002500618D8A46C
:100E7C004AEF07F001500518D8A44AEF07F00050CC
:0E0E8C000418D8B4D8841200D89412001200B2
:100E9A007EC000F0016A026A036AFF0E0016000EA5
:100EAA00011600C085F001C086F07F0E005C026E5C
:100EBA00000E0158036E02C085F003C086F0800E52
:100ECA000318006E800E005C02E1000E025C21E253
:100EDA00046A056A066A076A7BC000F07CC001F0F2
:100EEA007DC002F07EC003F0CEDC010ED8B0000E49
:100EFA00006E005209E0000E006E000E016E800EB8
:100F0A00026E7F0E036E59D0006A016A026A036A92
:100F1A0054D000018651000802E18551180809E2FF
:100F2A007BC000F07CC001F07DC002F07EC003F0FF
:100F3A0044D07BC000F07CC001F07DC002F07EC0CE
:100F4A0003F04CEC03F03EDC00C081F001C082F0FB
:100F5A0002C083F003C084F000C004F001C005F0B1
:100F6A0002C006F003C007F07BC000F07CC001F0AD
:100F7A007DC002F07EC003F086DC010ED8B0000E00
:100F8A00006E005212E0000E046E000E056E000E96
:100F9A00066E7F0E076E81C000F082C001F083C02A
:100FAA0002F084C003F00BDC08D081C000F082C0DC
:0C0FBA0001F083C002F084C003F01200BC
:100FC60088C000F089C001F0000E000189BFFF0E45
:100FD600026E036E00360090013602360336003686
:100FE600009001360236033685510024F66E86518E
:100FF6000120F76E87510220F86E0900F5CF7BF0CD
:101006000900F5CF7CF00900F5CF7DF00900F5CF9A
:101016007EF08851891148E081C000F082C001F05D
:1010260083C002F084C003F07BC004F07CC005F0EE
:101036007DC006F07EC007F08FDC010E885F000ED3
:10104600895B88C004F089C005F0000E89BFFF0ED9
:10105600066E076E043604900536063607360436E5
:10106600049005360636073685510424F66E8651F9
:101076000520F76E87510620F86E0900F5CF04F0BB
:101086000900F5CF05F00900F5CF06F00900F5CF08
:1010960007F03CEC01F000C07BF001C07CF002C020
:1010A6007DF003C07EF0B5D77BC000F07CC001F0B8
:0A10B6007DC002F07EC003F01200BE
:1010C00000C008F00150006E016A026A036A0B6AF0
:1010D0000C6A016A026A036A960E036E0A6A00AE1F
:1010E00078EF08F0081E001E082AD8B4002A0A8EDD
:1010F00000C001F008C000F0086A026A0CEC04F0BD
:021100001200DB
:101102000450000A08E10550000A05E1FF0E006ED6
:101112007F0E016E57D00D6A096A086A01500010ED
:10112200D8B4000C015005180A6E0ABE0D1E0B6AD7
:1011320005AE05D0041E051E042AD8B4052A01AE48
:1011420005D0001E011E002AD8B4012A0150051044
:101152000A6E0ABE10D061DD0BB020D00DAE000CBD
:10116200001E011E002AD8B4012A081E091E082AE0
:10117200D8B4092A000C05AE0DD001BE07D001502B
:10118200096E0050086E016A006AE8D7016A006AB7
:10119200002A000C011E001E0B2ADDD7082AD8B433
:1011A200092A0450085CD8A4D9D70550095CD8A4F0
:1011B200D5D7096A086A002AD8B4012A01AECED767
:0611C2000000FF0C12000A
:1011C800756A766A010E735C026E000E7458036EBF
:1011D800800E7618006E800E0318005C02E1025043
:1011E800755C2BE275507124006E76507220016E8A
:1011F80000C0E9FF01C0EAFFEECF04F0000E056E63
:10120800000E056E02507124E96E03507220EA6EDA
:1012180000C0E1FF01C0E2FFEECFE6FF02507124FB
:10122800E16E03507220E26E04C0E6FF754A762A2A
:0C123800010E025E000E035ACBD712001C
:1012440071C004F072C005F073C006F074C007F0FA
:10125400006A016A026A036A48EC04F0000ED8B01E
:10126400010E006E005205E0006A016A026A036A18
:101274006AD071C081F072C082F073C083F074C010
:1012840084F0750E0001856F000E866FF1DC000E90
:10129400046E000E056E000E066E800E076EAFEC37
:1012A40004F0000E046E000E056E000E066E7F0E36
:1012B400076EE4EC03F000C071F001C072F002C0EC
:1012C40073F003C074F0010E755E000E765A00C010
:1012D40081F001C082F002C083F003C084F0300EBC
:1012E400856F200E866F000E876F080E886F000EC4
:1012F400896F67DE00C077F001C078F002C079F032
:1013040003C07AF077C071F078C072F079C073F0DE
:101314007AC074F075C000F076C001F0CFDE180E0C
:10132400046E720E056E310E066E7E0E076EAFEC05
:1013340004F077C004F078C005F079C006F07AC0F4
:0813440007F03CEC01F012007F
:10134C00046A056A066A076A71C000F072C001F08F
:10135C0073C002F074C003F083DD010ED8A4000E3C
:10136C00006E005209E0000E006E000E016E000EC1
:10137C00026E7F0E036EFCD071C004F072C005F0DB
:10138C0073C006F074C007F0FC0E006ED40E016E34
:10139C00320E026E850E036E48EC04F0010ED8B0CE
:1013AC00000E006E005209E0FF0E006EFF0E016E83
:1013BC007F0E026EFF0E036EDBD04F0E046EAC0E72
:1013CC00056EAE0E066E850E076E71C000F072C013
:1013DC0001F073C002F074C003F048EC04F0010E8D
:1013EC00D8B0000E006E005205E0006A016A026A75
:1013FC00036ABED0046A056A066A076A71C000F007
:10140C0072C001F073C002F074C003F048EC04F039
:10141C00010ED8B0000E006E00C077F00052D8A4B8
:10142C00737E71C000F072C001F073C002F074C022
:10143C0003F03B0E046EAA0E056E380E066E7F0E80
:10144C00076EAFEC04F000C071F001C072F002C086
:10145C0073F003C074F000C07BF001C07CF002C0DC
:10146C007DF003C07EF013DD42EC05F000C075F09A
:10147C0001C076F01FDE00C004F001C005F002C010
:10148C0006F003C007F071C000F072C001F073C029
:10149C0002F074C003F0E4EC03F000C071F001C082
:1014AC0072F002C073F003C074F000C081F001C090
:1014BC0082F002C083F003C084F0080E0001856F37
:1014CC00200E866F000E876F090E886F000E896FD5
:1014DC0074DD00C081F001C082F002C083F003C053
:1014EC0084F075C085F076C086F0ACEC05F000C0D9
:1014FC0071F001C072F002C073F003C074F0775247
:10150C002FE0FF0E046EFF0E056E7F0E066EFF0EB3
:10151C00076E71C000F072C001F073C002F074C0AD
:10152C0003F09EDC010ED8A4000E006E005205E004
:10153C00006A016A026A036A1BD071C004F072C0AF
:10154C0005F073C006F074C007F0000E006E000EBC
:10155C00016E000E026E7F0E036E6EEC06F008D06C
:10156C0071C000F072C001F073C002F074C003F0DF
:02157C0012005B
:10157E0071BE02D0819601D0818671BC02D0819459
:10158E0001D0818471BA02D0819201D0818271B86A
:10159E0002D0819001D081803FB202D0828801D0EA
:1015AE008298828A63EC06F0829A71B602D0819696
:1015BE0001D0818671B402D0819401D0818471B240
:1015CE0002D0819201D0818271B002D0819001D07F
:1015DE0081803FB202D0828801D08298828A63ECE9
:1015EE0006F0829A3FA202D02FDC02D069EC06F000
:0215FE001200D9
:101600006A6A6B6A645065102BE06A5066246C6EDF
:101610006B5067206D6E0A0E046E000E056E64C07E
:1016200000F065C001F06DDD08C000F009C001F0F8
:10163000300E00266CC0E1FF6DC0E2FF00C0E6FF87
:101640006A4A6B2A0A0E046E000E056E64C000F032
:1016500065C001F056DD00C064F001C065F0D2D76E
:10166000800E6B18006E800E6918005C02E16850F5
:101670006A5C0BE26A506624E16E6B506720E26E92
:10168000300EE66E6A4A6B2AEBD766C071F067C00F
:1016900072F06AC073F06BC074F096DD6A50662415
:1016A000E16E6B506720E26EE66A6AC000F06BC0C4
:0416B00001F0120033
:0C16B4003F9264C071F061DF3F821200C1
:1016C000706A046A056A066A076A68C000F069C041
:1016D00001F06AC002F06BC003F036EC07F0010EB7
:1016E000D8A4000E006E005209E0000E006E000E3D
:1016F000016E000E026E7F0E036EA5D0046A056AAD
:10170000066A076A64C000F065C001F066C002F0B6
:1017100067C003F036EC07F0010ED8A4000E006E8F
:10172000005205E0006A016A026A036A8CD0046A0A
:10173000056A066A076A64C000F065C001F066C009
:1017400002F067C003F048EC04F0010ED8B0000EC0
:10175000006E00522DE068C000F069C001F06AC060
:1017600002F06BC003F04CEC03F000C06CF001C061
:101770006DF002C06EF003C06FF0E7EC03F068C0DC
:1017800004F069C005F06AC006F06BC007F036ECE3
:1017900007F0000ED8A4010E006E005205E0006AAA
:1017A000016A026A036A4FD0010E6C14706E667E85
:1017B00064C071F065C072F066C073F067C074F009
:1017C00041DD00C064F001C065F002C066F003C0F6
:1017D00067F068C004F069C005F06AC006F06BC02D
:1017E00007F0AFEC04F000C064F001C065F002C087
:1017F00066F003C067F000C071F001C072F002C073
:1018000073F003C074F0A2DD00C064F001C065F0A5
:1018100002C066F003C067F070520DE0000E64185D
:10182000006E000E6518016E800E6618026E000EC6
:101830006718036E08D064C000F065C001F066C090
:0818400002F067C003F0120082
:101848009388938AF19EF190F290F286F28ED09E60
:0218580012007C
:0A185A00810EC26EC50EC16E1200B1
:10186400949A94989390939293949396829A82984C
:1018740081968194819281902BEC07F02BEC07F0F8
:101884002BEC07F081828180828A63EC06F0829AD5
:101894002BEC07F0828A63EC06F0829A2BEC07F0BB
:1018A400828A63EC06F0829A2BEC07F08190828A9C
:1018B40063EC06F0829A2BEC07F0828A63EC06F064
:1018C400829A81928186828A63EC06F0829A2BEC5A
:1018D40007F081968180828A63EC06F0829A819077
:1018E400828A63EC06F0829A2BEC07F0828A63EC1E
:1018F40006F0829A8180828A63EC06F0829A2BEC4D
:1019040007F08190828A63EC06F0829A8186818452
:1019140081828180828A63EC06F0829A2BEC07F044
:041924003F821200EC
:10192800070E0C6E7D0E0D6E0D2EFED70C2EFCD7FD
:10193800000E81BA010E016E01360190006A81B86D
:10194800002A005001123E50000A0DE10150010A20
:1019580005E1010E195E000E1A5A05D00150020A5F
:0E19680002E1194A1A2A01C03EF0F290120064
:101976000900F5CFE6FF0006FBE10106F9E11200DA
:101986000FD0800E546E19D0C00E546E16D0940E21
:10199600546E13D0D40E546E10D0800E546E0DD0EB
:1019A6005450010AEEE05450020AEEE05450030A85
:1019B600EEE05450040AEEE0F0D75504006E5450A1
:1019C600002600C054F000C071F0D6DD3F92586A80
:1019D60058505624E96E000E5720EA6EEE520BE080
:1019E60058505624E96E000E5720EA6EEECF64F08A
:0A19F6005EDE582AEDD73F82120092
:101A000010D0800E716EBBDD18D0C00E716EB7DDC8
:101A100014D0940E716EB3DD10D0D40E716EAFDDA4
:101A20000CD05450010AEDE05450020AEEE054503C
:101A3000030AEFE05450040AF0E0010E596E5550CD
:101A4000595C05E2140E716E9ADD592AF8D756C01A
:101A5000F6FF57C0F7FF58C0F8FF0900F5CF00F0B8
:101A6000005210E056C0F6FF57C0F7FF58C0F8FF0D
:101A70000900F5CF64F01EDE010E5626000E572237
:061A80005822E5D7120018
:101A860054C000F055C001F056C002F057C003F034
:101A960042EC05F000C062F001C063F062C000F0E5
:101AA60063C001F060EC08F000C004F001C005F06E
:101AB60002C006F003C007F054C000F055C001F0A4
:101AC60056C002F057C003F0E4EC03F000C05CF02F
:101AD60001C05DF002C05EF003C05FF062C064F05A
:101AE60063C065F058C066F059C067F0010E686EB5
:101AF600000E696E82DD00C060F001C061F0000E6C
:101B06005B1802E1000E5A1844E060505824E16E5A
:101B160061505920E26E2E0EE66E000E646E000EC7
:101B2600656E200E666E820E676E5AC000F05BC050
:101B360001F060EC08F000C068F001C069F002C076
:101B46006AF003C06BF0B9DD5CC004F05DC005F05F
:101B56005EC006F05FC007F0AFEC04F000C05CF0BA
:101B660001C05DF002C05EF003C05FF042EC05F01C
:101B760000C064F001C065F060505824666E615084
:101B86005920676E664A672A5AC068F05BC069F0DA
:041B960034DD120028
:101B9A005450070803E2006A016A21D0C50EC21632
:101BAA0054C000F0003600900036009000360090D5
:101BBA000050C2120D0E0C6EFB0E0D6E0D2EFED7CE
:101BCA000C2EFCD700000000C284C2A401D0FDD7AD
:101BDA00C4CF01F0006AC3500026000E0122120091
:101BEA000050086E0150006E016A026A036A0B6AAD
:101BFA000C6A960E036E0A6A00C001F008C000F073
:0A1C0A00086A026A0CEC04F01200F4
:101C14003CEC10F0486A496A4A6A4B6A330E4C6ECF
:101C2400330E4D6E730E4E6E820E4F6E1B0E926E01
:101C3400F00E936E946A956A816A826A836A10DEF2
:101C44000C0E716E9ADCFEDD06DE80B805D080B81D
:101C540001D0FDD7807A3F70800E4318006E800E4D
:101C64000F0A005C02E1FF0E425C02E3426A436A2F
:101C7400800E006E800E4318005C02E142500008A2
:101C840004E3FF0E426E0F0E436E42C083FF43C057
:101C940000F0000E43BEFF0E016E0F0E0014826EA4
:101CA400010E546E78DF00C040F001C041F09BDFAC
:101CB400520E046E270E056E200E066E770E076E0A
:101CC400AFEC04F000C044F001C045F002C046F09F
:101CD40003C047F0000E046E000E056E200E066E63
:101CE400820E076EAFEC04F000C054F001C055F052
:101CF40002C056F003C057F02F0E586E000E596EF6
:101D0400020E5A6E000E5B6EBCDE020E546E010EA5
:101D1400556E2F0E566E000E576E33DE020E546E45
:101D2400060E556E6A0E566E200E576E000E586ED5
:101D340065DE48C054F049C055F04AC056F04BC067
:101D440057F02F0E586E000E596E020E5A6E000E8A
:101D54005B6E97DE020E546E0A0E556E720E566E50
:101D6400200E576E000E586E49DE020E546E0B0E96
:101D7400556E2F0E566E000E576E03DE020E546E15
:101D84000F0E556E740E566E200E576E000E586E62
:101D940035DE546A00DF27DF050E046EDC0E056EA7
:101DA400730E066E790E076EAFEC04F044C004F0B7
:101DB40045C005F046C006F047C007F0E4EC03F068
:101DC40000C054F001C055F002C056F003C057F0F3
:101DD4002F0E586E000E596E010E5A6E000E5B6E79
:101DE40050DE010E546E010E556E2F0E566E000E0F
:101DF400576EC7DD010E546E050E556E6E0E566E8F
:101E0400200E576E000E586EF9DD4CC054F04DC0D4
:101E140055F04EC056F04FC057F02F0E586E000EBE
:101E2400596E010E5A6E000E5B6E2BDE010E546E5F
:101E34000A0E556E760E566E200E576E000E586EB4
:101E4400DDDD010E546E0B0E556E2F0E566E000E18
:101E5400576E97DD010E546E0F0E556E060E566EBC
:101E6400000E576E000E586EC9DD3FA0C7D081B872
:101E740029D04CC000F04DC001F04EC002F04FC05C
:101E840003F0CD0E046ECC0E056E4C0E066E7B0E6A
:101E9400076E3CEC01F000C04CF001C04DF002C0F4
:101EA4004EF003C04FF0020E0B6E450E0C6EA90EE1
:101EB4000D6E0D2EFED70C2EFCD70B2EFAD700007C
:101EC40000002AD081BA28D0CD0E046ECC0E056E47
:101ED4004C0E066E7B0E076E4CC000F04DC001F038
:101EE4004EC002F04FC003F0E4EC03F000C04CF02D
:101EF40001C04DF002C04EF003C04FF0020E0B6E55
:101F0400450E0C6EA90E0D6E0D2EFED70C2EFCD7B1
:101F14000B2EFAD7000000004CC000F04DC001F0B9
:101F24004EC002F04FC003F0000E046EF00E056EBA
:101F34007F0E066E8A0E076EAFEC04F0000E046E80
:101F4400000E056E740E066E830E076E6EEC06F0C0
:101F540000C050F001C051F002C052F003C053F071
:101F640040C000F041C001F03EDE50C004F051C05A
:101F740005F052C006F053C007F03CEC01F042EC0F
:101F840005F000C042F001C043F0000E046E000EE4
:101F9400056E740E066E830E076E4CC000F04DC0C5
:101FA40001F04EC002F04FC003F048EC04F0000E04
:101FB400D8B0010E006E005208E0000E4C6E000E08
:101FC4004D6E740E4E6E830E4F6E4CC004F04DC0B9
:101FD40005F04EC006F04FC007F0006A016A026ABD
:101FE400036A48EC04F0000ED8B0010E006E0052F3
:101FF40004E04C6A4D6A4E6A4F6A02D0426A436AF0
:0420040024D6FFD708
:1020780010EE19F0160E006E010E016E540EF66E7B
:0E208800200EF76E000EF86EBBEC0CF012008E
:020006005D009B
:102008000000007F1872317EF0FD757C4758637AB6
:1020180058951D7882C42E75A8782172EF93006FA9
:08202800A092276B46561568D3
:10203000FFE65B5DC4FF7F7E80EFFF7D90E1297D41
:10204000EC82F67C82AD2B7C0E3CC37B87D1137A6D
:042050004178D37789
:0220540000008A
:05205600302E303000C7
:05205B0030302E3000C2
:05206000302E303000BD
:0520650030302E3000B8
:04206A005B415D0079
:04206E005B565D0060
:022072005B0011
:022074005D000D
:022076005B000D
:020000040030CA
:0D000100220E0EFF0081FF0FC00FE00F4028
:00000001FF
