:02000000D42901
:0A00060000000000000000000800E8
:100010001D3083120313FC009130FD00FD0B0E28F0
:06002000FC0B0E28080095
:10002600423083120313FD00FD0B17280000080061
:1000360083120313C01B2128871122288715401B12
:100046002628071127280715C01A2B2887102C28C1
:100056008714401A30280710312807142F1835281E
:10006600071636280712871603208712C0193D285F
:1000760087113E288715401942280711432807157E
:10008600C018472887104828871440184C2807109E
:100096004D2807142F1851280716522807128716BD
:1000A600032087122F1C592808205A2813200800DD
:0E00B600831203132E088A002D088200080012
:1000C400831203132F103F08C0001B202F140800B5
:1000D4007C28803083120313BA008F28C030BA0002
:1000E4008F289430BA008F28D430BA008F288030FB
:1000F400BA008F28831203133A08013A03196B28B4
:100104003A08023A031970283A08033A0319732883
:100114003A08043A0319762879283B03F0003A0890
:10012400F0077008BA007008C0001B202F10BD0132
:100134003D083C07840000080319A8283D083C0733
:1001440084000008BF006220BD0A9A282F1408000A
:10015400BD28803083120313C0001B20CF28C03079
:10016400C0001B20CF289430C0001B20CF28D430DF
:10017400C0001B20CF28831203133A08013A031945
:10018400AB283A08023A0319B1283A08033A03198A
:10019400B5283A08043A0319B9280130BE003B08CF
:1001A4003E020318DA281430C0001B20BE0AD128EE
:1001B4003C08AD003D08AE005B208A110A12F00035
:1001C40070080319F2283C08AD003D08AE005B201E
:1001D4008A110A12BF006220BC0A0319BD0ADA2878
:0201E400080011
:1001E6008316031305160717871700308312871B1C
:0801F6000130AB00AC01080070
:1001FE00831203133A08073C03180829F001F10192
:10020E002929C5309F053A08F000F00D7010F00D49
:10021E007010F00D701070089F040B30FC006230EF
:10022E00FD00FD0B1829FC0B182900001F151F1DC2
:10023E0021291E291E08F100F00183161E08F00761
:06024E000318F10A08008C
:100254005B208A110A128000840AAD0A0319AE0ACF
:08026400F003031D2A29080024
:10026C0083120313FB01FA01F9018030F800F10C41
:10027C00F00C031C4A297408F90775080318750F4C
:10028C00FA070318FB0A0310F01F52297408FA0727
:10029C0075080318750FFB07FB0CFA0CF90CF80C1E
:1002AC00031C3D297B08F3007A08F2007908F10061
:0602BC007808F0000800C4
:1002C20083120313F801F9011030FC00710DF80DCF
:1002D200F90D7408F8027508031C750FF90203186A
:1002E20079297408F80775080318750FF9070310C0
:0A02F200F00DF10DFC0B6729080068
:1002FC004130831203139F00C53083169F00080002
:10030C008316031387120712071087100711871122
:10031C008312871207128711071187100710082004
:10032C00082008208714071487160320871208203A
:10033C0087160320871208208716032087120820AF
:10034C0007108716032087120820871603208712B0
:10035C00871087158716032087120820871107142A
:10036C008716032087120710871603208712082090
:10037C00871603208712071487160320871208207C
:10038C000710871603208712871507158714071483
:0C039C0087160320871208202F14080089
:1003A800303083120313A0002E30A1003030A20099
:1003B8003030A300A4013030A5003030A6002E3024
:1003C800A7003030A800A9012530B7002030B800B8
:1003D800FF30831685008601C030870083128601AE
:1003E8008701C03083169F00413083129F00073079
:1003F80083169C0086210C30C0001B200130BA00F7
:100408000130BB000930BC000330BD00AA20F32036
:100418007E218312AA01B501B601B4010430340269
:1004280003181C2A3408303E84008001B40A122ABA
:10043800071B1F2AAA0A871B222AAA032A08860042
:100448000230FB000430FC00BA30FD00FD0B2A2A04
:10045800FC0B2A2AFB0B2A2A0000BA01FF200330D2
:1004680083120313F4000030F50036217008B5003C
:100478007108B6000330FB000830FC007730FD003F
:10048800FD0B442AFC0B442AFB0B442AE830F400F9
:100498000330F5003508F0003608F10061213030EE
:1004A800F0073708840070088000370AB900643004
:1004B800F4000030F5003508F0003608F10061213D
:1004C8000A30F4000030F50061217808F00079085E
:1004D800F1003030F00739088400700880000330DC
:1004E8003707B9000A30F4000030F5003508F0008D
:1004F8003608F10061210A30F4000030F50061216E
:100508007808F0007908F1003030F00739088400E5
:10051800700880000230BA000130BB003708BC0008
:100528006A200330FB000830FC007730FD00FD0B2B
:100538009B2AFC0B9B2AFB0B9B2A0130BA00FF204D
:10054800053083120313F4000030F50036217008DB
:10055800B5007108B6000330FB000830FC007730A6
:10056800FD00FD0BB52AFC0BB52AFB0BB52AE830BC
:10057800F4000330F5003508F0003608F100612179
:100588003030F007380884007008800002303807DF
:10059800B9006430F4000030F5003508F000360882
:1005A800F10061210A30F4000030F500612178087B
:1005B800F0007908F1003030F0073908840070083D
:1005C800800003303807B9000A30F4000030F50025
:1005D8003508F0003608F10061210A30F4000030D7
:1005E800F50061217808F0007908F1003030F00753
:1005F80039088400700880000230BA000A30BB0055
:0A0608003808BC006A201C2A082BE9
:100612005A3463346834613472342034503461346F
:0C0622007034613472346F34763400346C
:02400E00422F3F
:00000001FF
