:020000040000FA
:100000000A128A11FC2FF2008312031307127208DE
:10001000803E0A128A15FC220A128A1108008312F5
:100020000313071287126230F5006530F400F40BF9
:100030001728F50B17281C2803308312031386009A
:10004000871687122130F5007630F400F40B26284D
:10005000F50B262800008312031387168712C7307A
:10006000F4003228F40B3128352836288312031384
:1000700087168712C730F4003D28F40B3C2840282F
:100080004128023083120313860087168712283016
:100090000A128A15FC220A128A110C300A128A15D9
:1000A000FC220A128A110A128A15BC220A128A112B
:1000B00006300A128A15FC220A128A110800003042
:1000C0007005F80000307105F90080307205FA0003
:1000D0007F307305FB007B087A0479047804031DE4
:1000E000722873287B280030F3000030F2000030C3
:1000F000F1000030F00000307405F80000307505A4
:10010000F90080307605FA007F307705FB007B0828
:100110007A0479047804031D8E288F2897280030EC
:10012000F7000030F6000030F5000030F400F31F57
:100130009A289B28BF280030F8000030F9000030D2
:10014000FA008030FB007008F8027108031C710F80
:10015000AA28AB28F9027208031C720FB028B12834
:10016000FA027308031C730FB628B728FB027B083A
:10017000F3007A08F2007908F1007808F000F71F20
:10018000C228C328E7280030F8000030F90000300A
:10019000FA008030FB007408F8027508031C750F24
:1001A000D228D328F9027608031C760FD828D9283C
:1001B000FA027708031C770FDE28DF28FB027B0892
:1001C000F7007A08F6007908F5007808F400803026
:1001D000F3068030F70677087302031DF9287608C6
:1001E0007202031DF92875087102031DF9287408AD
:1001F00070020318FC28FD28FF28031000290314AF
:100200000800F80078080319062907291B29F31F9D
:100210000A290B291B297009FA007109FB007209D0
:10022000FC007309FD00FA0A0319FB0A0319FC0A12
:100230000319FD0A23297308FD007208FC007108E8
:10024000FB007008FA007308720471047004031D47
:100250002A292B2934290030F3000030F200003025
:10026000F1000030F000BA299630F4007408F9006B
:1002700046290130F4007408F90701300310FD0C21
:10028000FC0CFB0CFA0CFF3E031D3E29FE307D05E5
:10029000031D4B294C29392968290130F4007408C1
:1002A000F9070130FA07003003180130FB0700306E
:1002B00003180130FC07003003180130FD0701303E
:1002C0000310FD0CFC0CFB0CFA0CFF3E031D602917
:1002D000FF307D05031D6D296E294D297A290130D6
:1002E000F9020130F4000310FA0DFB0DFC0DFD0DB9
:1002F000F40B7329FC1B7D297E29842902307902A5
:100300000318832984296F29791887298829902936
:10031000FF30FA05FF30FB057F30FC05FF30FD059F
:100320000310F90C7908F400F501F601F701183013
:100330000310F40DF50DF60DF70DFF3E031D982982
:100340007408FA047508FB047608FC047708FD04B9
:1003500078080319AC29AD29B229F31FB029B129B6
:10036000B229FD177D08F3007C08F2007B08F1003C
:100370007A08F0000800831203133908BC003C0817
:10038000C8003B08803AFF0080307F02031DCA2965
:100390000B303A02031CCD29CE29D4290A3083120E
:1003A0000313BA000030BB00831203133808F300B4
:1003B0003708F2003608F1003508F0000030F70089
:1003C0000030F6000030F5000030F4000A128A1107
:1003D0005F200A128A110318EE29EF29132A8312CB
:1003E00003133808F3003708F2003608F100350827
:1003F000F0000A128A1598220A128A1173088312D1
:100400000313B8007208B7007108B6007008B50091
:100410002D30BC00480884003C0883138000013064
:10042000BC003C08C80783120313BB1F182A192AF3
:10043000E72A3808F3003708F2003608F1003508DB
:10044000F0003F30F7008030F6000030F50000305B
:10045000F4000A128A115F200A128A110318312A45
:10046000322A392A063083120313BA000030BB0047
:10047000E72A831203133808F3003708F20036081E
:10048000F1003508F0004130F7002030F600003070
:10049000F5000030F4000A128A115F200A128A1156
:1004A0000318532A542A5B2A053083120313BA0017
:1004B0000030BB00E72A831203133808F300370823
:1004C000F2003608F1003508F0004230F700C8307D
:1004D000F6000030F5000030F4000A128A115F20A7
:1004E0000A128A110318752A762A7D2A043083128B
:1004F0000313BA000030BB00E72A83120313380845
:10050000F3003708F2003608F1003508F0004430F7
:10051000F7007A30F6000030F5000030F4000A12DF
:100520008A115F200A128A110318972A982A9F2A93
:10053000033083120313BA000030BB00E72A831292
:1005400003133808F3003708F2003608F1003508C5
:10055000F0004630F7001C30F6004030F500003067
:10056000F4000A128A115F200A128A110318B92AAC
:10057000BA2AC12A023083120313BA000030BB002A
:10058000E72A831203133808F3003708F20036080D
:10059000F1003508F0004730F700C330F600503066
:1005A000F5000030F4000A128A115F200A128A1145
:1005B0000318DB2ADC2AE32A013083120313BA0072
:1005C0000030BB00E72A83120313BA01BB013A08CB
:1005D0003B040319EC2AED2A302B3A08BC00013009
:1005E0000310BC0DFF3E031DF02A03103C0D013E1D
:1005F00084000A128A1500200A128A11BD000A120C
:100600008A1500200A128A11BE000A128A150020DB
:100610000A128A11BF000A128A1500200A128A11D2
:10062000C0004008F3003F08F2003E08F1003D081A
:10063000F0003808F7003708F6003608F5003508EE
:10064000F4000A128A1568250A128A1173088312A7
:100650000313B8007208B7007108B6007008B5003F
:100660003808F3003708F2003608F1003508F000CA
:100670000A128A15CC230A128A11730883120313F3
:10068000C6007208C5007108C4007008C30046089F
:10069000F3004508F2004408F1004308F00001307F
:1006A0000A128A1101210A128A1173088312031394
:1006B000AB007208AA007108A9007008A8003808E9
:1006C000AF003708AE003608AD003508AC000A129E
:1006D0008A1517230A128A11831203132B08B800F4
:1006E0002A08B7002908B6002808B50046084504BE
:1006F00044044304031D7D2B7E2B8A2B3030BC0029
:10070000480884003C08831380000130BC003C088A
:10071000C807032C4808BC003C08C700D12B003098
:10072000F3000030F2000030F1000A30F00046081B
:10073000F7004508F6004408F5004308F4000A12E3
:100740008A1546240A128A117008303E8312031358
:10075000BC00470884003C08831380000130BC00C3
:100760003C08C7070030F3000030F2000030F10011
:100770000A30F0004608F7004508F6004408F50086
:100780004308F4000A128A15CB240A128A1173084E
:1007900083120313C6007208C5007108C4007008F4
:1007A000C3004608450444044304031DD82BD92B39
:1007B0008F2B4708BC003C08C100F92B0130C70251
:1007C0004708840083130008BC003C08C2004808A6
:1007D00084000008BC00470884003C0880004208F0
:1007E000BC00480884003C0880000130BC003C0884
:1007F000C80747084802031CFE2BFF2BDE2B4108CD
:10080000BC003C08C8003A083B040319082C092C1A
:10081000952C2E30BC00480884003C0883138000CF
:100820000130BC003C08C807872C4130A3002030B1
:10083000A2000030A1000030A0003808A70037084F
:10084000A6003608A5003508A4000A128A119B24C8
:100850000A128A11831203132308B8002208B70072
:100860002108B6002008B5003808F3003708F20068
:100870003608F1003508F0000A128A15CC230A1256
:100880008A11700883120313BC003C08C20042089E
:10089000303EBC00480884003C08831380000130CF
:1008A000BC003C08C8074208BC00BD01BE01BF0136
:1008B0003F08F3003E08F2003D08F1003C08F0005C
:1008C00001300A128A1101210A128A117308831257
:1008D0000313AB007208AA007108A9007008A800F1
:1008E0003808AF003708AE003608AD003508AC0058
:1008F0000A128A1517230A128A11831203132B086E
:10090000B8002A08B7002908B6002808B500FF304B
:10091000BA070318BB0AFF30BB073A0A031D942C21
:100920003B0A031D942C952C152C48088400831336
:100930008001390808008312031323088039F90065
:100940007908A8002308F9007907FA007A08AE00B0
:10095000A21FAB2CAC2CAD2C2E142E080319B12CDD
:10096000B22CC12C2E0A031DB62CB72CBF2C003084
:10097000A3000030A2000030A1000030A000A217A8
:10098000C92C0030A3000030A2000030A1000030CC
:10099000A00027088039F9007908A8062708F9007F
:1009A0007907FA007A08AD00A61FD72CD82CD92CCD
:1009B0002D142D080319DD2CDE2CED2C2D0A031D22
:1009C000E22CE32CEB2C0030A7000030A600003016
:1009D000A5000030A400A617F52C0030A7000030B9
:1009E000A6000030A5000030A4002D080319F92C42
:1009F000FA2CFF2C2E08031DFE2CFF2C082D003096
:100A0000A3000030A2000030A1000030A000FB2FA6
:100A10002008F9007908F00026080A128A156023D8
:100A20000A128A11710883120313B4007008B3000C
:100A30003308F900FA01FB01FC017C08AC007B08DB
:100A4000AB007A08AA007908A9003408F900FA0175
:100A5000FB01FC017C08B2007B08B1007A08B00001
:100A60007908AF002108F9007908F00025080A127A
:100A70008A1560230A128A11710883120313B400C5
:100A80007008B3003308F900FA01FB01FC01790892
:100A9000A9077A0803110318013E0319502DAA076C
:100AA0007B0803110318013E0319572DAB077C087F
:100AB00003110318013E03195E2DAC073408F90039
:100AC000FA01FB01FC017908AF077A08031103184A
:100AD000013E03196C2DB0077B0803110318013E7A
:100AE0000319732DB1077C0803110318013E031984
:100AF0007A2DB2072208F9007908F00024080A12BA
:100B00008A1560230A128A11710883120313B40034
:100B10007008B3003308F900FA01FB01FC01790801
:100B2000A9077A0803110318013E0319982DAA0793
:100B30007B0803110318013E03199F2DAB077C08A6
:100B400003110318013E0319A62DAC073408F90060
:100B5000FA01FB01FC017908AF077A0803110318B9
:100B6000013E0319B42DB0077B0803110318013EA1
:100B70000319BB2DB1077C0803110318013E0319AB
:100B8000C22DB2070830F9000310A90DAA0DAB0D54
:100B9000AC0DF90BC42D2108F9007908F0002408E8
:100BA0000A128A1560230A128A117108831203132C
:100BB000B4007008B3003308F9003408FA00FB01F0
:100BC000FC017908A9077A0803110318013E0319EB
:100BD000EA2DAA077B0803110318013E0319F12D22
:100BE000AB077C0803110318013E0319F82DAC076D
:100BF0002008F9007908F00025080A128A156023F8
:100C00000A128A11710883120313B4007008B3002A
:100C10003308F9003408FA00FB01FC017908A90740
:100C20007A0803110318013E0319172EAA077B083F
:100C300003110318013E03191E2EAB077C08031194
:100C40000318013E0319252EAC070830F9000310E4
:100C5000A90DAA0DAB0DAC0DF90B272E2008F9003C
:100C60007908F00024080A128A1560230A128A11F2
:100C7000710883120313B4007008B3003308F9003D
:100C80003408FA00FB01FC017908A9077A0803116E
:100C90000318013E03194D2EAA077B080311031800
:100CA000013E0319542EAB077C0803110318013EC3
:100CB00003195B2EAC072108F9007908F00026081B
:100CC0000A128A1560230A128A117108831203130B
:100CD000B4007008B3003308F9003408FA00FB01CF
:100CE000FC017908AF077A0803110318013E0319C4
:100CF0007A2EB0077B0803110318013E0319812ED9
:100D0000B1077C0803110318013E0319882EB207AE
:100D10002208F9007908F00025080A128A156023D4
:100D20000A128A11710883120313B4007008B30009
:100D30003308F9003408FA00FB01FC017908AF0719
:100D40007A0803110318013E0319A72EB0077B0888
:100D500003110318013E0319AE2EB1077C080311DD
:100D60000318013E0319B52EB2072208F9007908CD
:100D7000F00026080A128A1560230A128A117108E7
:100D800083120313B4007008B3003308F900340869
:100D9000FA00FB01FC0108300310F90DFA0DFB0D00
:100DA000FC0DFF3E031DCC2E7908AF077A08031116
:100DB0000318013E0319DD2EB0077B080311031849
:100DC000013E0319E42EB1077C0803110318013E0C
:100DD0000319EB2EB2072908F9002A08FA002B089C
:100DE000FB002C08FC0018300310FC0CFB0CFA0C68
:100DF000F90CFF3E031DF42E7908AF077A080311A2
:100E00000318013E0319052FB0077B0803110318CF
:100E1000013E03190C2FB1077C0803110318013E92
:100E20000319132FB2070830F9000310A90DAA0DFA
:100E3000AB0DAC0DF90B152F2E082D07F900FA019B
:100E4000FA0D7908823EB3007A080318013EFF3E8E
:100E5000B400472F0130F9000310AF0DB00DB10DF4
:100E6000B20DF90B2C2FAC1F362F372F382F2F1424
:100E70000130F9000310A90DAA0DAB0DAC0DF90B53
:100E80003A2FFF30B3070318B40AFF30B407B11F7D
:100E90004A2F4B2F2A2FAD01AC1F4F2F502F6C2FF5
:100EA000FF302905F900FF302A05FA00FF302B0535
:100EB000FB007F302C05FC007C087B047A0479045D
:100EC0000319632F642F672FAD01AD0A6C2F2F1C00
:100ED0006A2F6B2F6C2F642F2D080319702F712F21
:100EE000A22F0130AF07003003180130B0070030E7
:100EF00003180130B107003003180130B207321C6B
:100F0000822F832FA22F2F08F9003008FA00310812
:100F1000FB003208FC000130FD007C0DFC0CFB0CDA
:100F2000FA0CF90CFD0B8D2F7C08B2007B08B10088
:100F30007A08B0007908AF000130B3070318B40A8B
:100F40000030B4073408803AFF0080307F02031D70
:100F5000AB2FFF303302031CAE2FAF2FBA2F7F30E1
:100F600083120313B2008030B1000030B0000030B3
:100F7000AF00EF2F831203133408803AFF00803054
:100F80007F02031DC52F013033020318C82FC92F5C
:100F9000D52F003083120313B2000030B1000030AF
:100FA000B0000030AF00A801EF2F83120313330805
:100FB000F9007908AE00FF30AF05FF30B0057F3093
:100FC000B1050030B2052E1CE62FE72FE82FB11730
:100FD0002E08F9000310790CFA007A08B2002808EC
:100FE000F9007908B2043208A3003108A2003008E1
:100FF000A1002F08A000080083010A128A15CF2A39
:1010000008308A000408840A82070034003400345F
:1010100000343F34CD34CC344C343D340A34D734EE
:10102000A3343B346F34123403343A341734B734B6
:1010300051343834AC34C534A7343634BD34373445
:10104000063435349534BF34563433347734CC34A5
:10105000AB3431345F34703409343034FF34E63427
:041060005B342E349B
:10153000730872047104700403199F2AA02AA22A56
:101540008030F30608000A128A110F200A128A1549
:101550000A128A15BC220A128A1508008312031384
:101560008601870188011B30831603138500F03044
:1015700086008701880108008312031307120130D7
:101580000A128A15FC220A128A150D30F300FB306C
:10159000F200F20BC92AF30BC92ACE2A08000A125C
:1015A0008A15AE220A128A150A128A15A3220A1275
:1015B0008A150A128A1587230A128A15D92A0A124D
:1015C0008A110028F300831203130716F32A730805
:1015D000840000080A128A15FC220A128A150130BA
:1015E000F2007208F3077308840083130008031DD8
:1015F000FA2AFB2AE72A0800F1004230F000F00B3B
:10160000FF2A00007108F00004300310F00CFF3EC8
:10161000031D052B70080F398312031386008716EC
:10162000871271080F3986008716871208008030EC
:1016300083120313AB062F08F3002E08F2002D08C7
:10164000F1002C08F0002B08F7002A08F600290802
:10165000F5002808F4000A128A1568250A128A156E
:10166000730883120313AB007208AA007108A90063
:101670007008A8000800831203134D080A128A118B
:1016800003200A128A15831203134C08B8004B0872
:10169000B7004A08B6004908B5005030CF004F08DF
:1016A000B9000230BA000030BB000A128A11BB2117
:1016B0000A128A150A128A15E2220A128A150800ED
:1016C000F800F401F5017008F200F3017208F60069
:1016D0007308F700781C6D2B6E2B742B7608F407BB
:1016E0000318F50A7708F50701300310F60DF70D1A
:1016F000FF3E031D752B0310F80C7808031D812B8A
:10170000822B6A2B7508F1007408F00008000D3078
:1017100083120313D700AF30D600B530D500D50BF8
:101720008F2BD60B8F2BD70B8F2B962B831203135C
:1017300005154030CC00A830CB000030CA00003086
:10174000C9000030CD00CE000A128A153B230A12D0
:101750008A150D3083120313D700AF30D600B53091
:10176000D500D50BB12BD60BB12BD70BB12BB82B8A
:101770008312031305114030CC009830CB000030A9
:10178000CA000030C9000030CD00CE000A128A1510
:101790003B230A128A1508000310720D730DF40022
:1017A0007408FA007A08031DD62BD72BE02B0030E3
:1017B000F3000030F2000030F1000030F000452C62
:1017C0007008F4007108F5007208F6007308F7005D
:1017D0001F300310F70CF60CF50CF40CFF3E031D44
:1017E000E92B7408F8007808F900F217FF30F005CB
:1017F000FF30F105FF30F2050030F3059630FA02B4
:10180000FA1F032C042C1E2C7A08803A973E0318EA
:101810000A2C0B2C0C2CD72B01300310F30CF20CE0
:10182000F10CF00CFF3E031D0D2C0130F400740888
:10183000FA07031D1C2C1D2C0C2C352C20307A0291
:10184000031C232C242C302CD72B0130F400031044
:10185000F00DF10DF20DF30DF40B272C0130FA020F
:101860007A08031D342C352C252C79080319392CC2
:101870003A2C452CF009F109F209F309F00A031991
:10188000F10A0319F20A0319F30A0800FA01F71F13
:101890004A2C4B2C582CF409F509F609F709F40ADF
:1018A0000319F50A0319F60A0319F70AFA01FA0AE5
:1018B000F31F5B2C5C2C672CF009F109F209F3098A
:1018C000F00A0319F10A0319F20A0319F30A73085B
:1018D00072047104700403196E2C6F2CB22CF90180
:1018E000F90A7F2C0130F8000310F00DF10DF20D14
:1018F000F30DF80B742C0130F8007808F907F31F8A
:10190000822C832C722C73087702031D912C720891
:101910007602031D912C71087502031D912C70082D
:101920007402031C942C952CA32C7008F4027108EB
:10193000031C710FF5027208031C720FF602730884
:10194000031C730FF70201300310F30CF20CF10CBF
:10195000F00CFF3E031DA42C0130F902031DB12C35
:10196000B22C832C7A080319B62CB72CC22CF4099C
:10197000F509F609F709F40A0319F50A0319F60A35
:101980000319F70A7708F3007608F2007508F100EA
:101990007408F000080083120313A101F31FD12C77
:1019A000D22CDF2CF009F109F209F309F00A03192E
:1019B000F10A0319F20A0319F30AA101A10AF71F98
:1019C000E22CE32CF22CF409F509F609F709F40AE4
:1019D0000319F50A0319F60A0319F70A0130F8008A
:1019E0007808A1060030A5000030A4000030A30054
:1019F0000030A20073087204710470040319012DF1
:101A0000022D4F2DA001A00A122D0130F800031065
:101A1000F00DF10DF20DF30DF80B072D0130F8006C
:101A20007808A007F31F152D162D052D0130F8009D
:101A30000310A20DA30DA40DA50DF80B182D73080E
:101A40007702031D2D2D72087602031D2D2D7108BE
:101A50007502031D2D2D70087402031C302D312DCD
:101A6000402D7008F4027108031C710FF502720812
:101A7000031C720FF6027308031C730FF702221483
:101A800001300310F30CF20CF10CF00CFF3E031DBF
:101A9000412D0130A002031D4E2D4F2D162D210882
:101AA0000319532D542D5F2DA209A309A409A509DB
:101AB000A20A0319A30A0319A40A0319A50A2508EF
:101AC000F3002408F2002308F1002208F0000800C7
:101AD0007308803983120313A0002008F8007308EC
:101AE000A0002007A1002108FA00F21F782D792D0F
:101AF0007A2D7A147A0803197E2D7F2D8F2D7A0A7C
:101B0000031D832D842D8C2D0030F3000030F20056
:101B10000030F1000030F000F217F301972D003093
:101B2000F3000030F2000030F1000030F0007708E0
:101B30008039A0002008F900790878060319A12D42
:101B4000A22DA32D78177708A0002007A100210857
:101B5000F900F61FAC2DAD2DAE2D791479080319BF
:101B6000B22DB32DC32D790A031DB72DB82DC02D6D
:101B70000030F7000030F6000030F5000030F400CF
:101B8000F617F701CB2D0030F7000030F6000030DB
:101B9000F5000030F4007A0879020318D02DD12D19
:101BA000152E781FD42DD52DD92D8030A0002008DA
:101BB000F8067A08A0002008FB007908A000200899
:101BC000FA007B08A0002008F9007008A000200897
:101BD000FB007408A0002008F0007B08A00020088B
:101BE000F4007108A0002008FB007508A000200880
:101BF000F1007B08A0002008F5007208A000200872
:101C0000FB007608A0002008F2007B08A000200856
:101C1000F6007308A0002008FB007708A000200849
:101C2000F3007B08A0002008F700FB017908A00062
:101C3000A1012108A3007A082002A200031CA3032B
:101C40002308803AFF0080307F02031D292E1A30BE
:101C50002202031C2C2E2D2E6E2E7308720471048A
:101C60007004031D342E362E0130372E00308312BF
:101C70000313A0002008FB000030F3000030F20046
:101C80000030F1000030F0007908A0002008FA00D0
:101C9000742E7B1C4C2E4D2E582E7B088312031362
:101CA000A0000310200C0138A1002108FB005A2ECF
:101CB0000310FB0C701C5D2E5E2E5F2EFB17013097
:101CC00083120313A000730DF30CF20CF10CF00C53
:101CD000A00B632E0130A0002008FA0779087A02D1
:101CE000031C732E742E492E781B772E782EC72E48
:101CF0007A08031D7C2E7D2E862E0030F3000030E6
:101D0000F2000030F1000030F000FF2F7408F007FF
:101D1000750803110318013E03198F2EF107760889
:101D200003110318013E0319962EF20777080311D9
:101D30000318013E03199D2EF307731CA02EA12E3C
:101D40007F2F7B1CA42EA52EB02E7B08831203139D
:101D5000A0000310200C0138A1002108FB00B22EC6
:101D60000310FB0C701CB52EB62EB72EFB170130DE
:101D700083120313A000730DF30CF20CF10CF00CA2
:101D8000A00BBB2E0130A0002008FA077F2F73089C
:101D9000803AFF007708803A7F02031DD92E76082B
:101DA0007202031DD92E75087102031DD92E740805
:101DB00070020318DC2EDD2E372FFF308312031341
:101DC000A000FF30A100FF30A200FF30A300740884
:101DD000A4007508A5007608A6007708A70070087B
:101DE000A4027108031C710FF62EF72EA5027208CB
:101DF000031C720FFC2EFD2EA6027308031C730F2A
:101E0000022F032FA7022408A00725080318250F77
:101E10000A2F0B2FA10726080318260F102F112FAA
:101E2000A20727080318270AA3072308F30022089C
:101E3000F2002108F1002008F0008030A000200806
:101E4000F806FB09FB0A7B08031D272F282F452FC7
:101E50000130F007003003180130F107003003189B
:101E60000130F207003003180130F307452F7408E2
:101E7000F0027508031C750FF1027608031C760F3B
:101E8000F2027708031C770FF302730872047104DF
:101E90007004031D4C2F4D2F7B2F7B08031D512FEA
:101EA000522F7B2F0030F3000030F2000030F100A1
:101EB0000030F000FF2F013083120313A000031045
:101EC000F00DF10DF20DF30DA00B5F2FFB1F692F2D
:101ED0006A2F6B2F70147B1C6E2F6F2F722F0314C1
:101EE000FB0D742F0310FB0D7A080319782F792F3F
:101EF0007B2F0130FA02F21F7E2F7F2F5B2FF9011B
:101F0000FB1F832F842F922F7B087F390319892F82
:101F10008A2F8D2FF901F90A922F701C902F912F83
:101F2000922F8A2F79080319962F972FCD2F0130E2
:101F3000F007003003180130F107003003180130BA
:101F4000F207003003180130F307731CA82FA92FE4
:101F5000CD2F700883120313A0007108A10072082E
:101F6000A2007308A3000130A400230DA30CA20C4F
:101F7000A10CA00CA40BB52F2308F3002208F2003B
:101F80002108F1002008F0007A0A0319C82FC92F90
:101F9000CD2F0130A0002008FA077A0A0319D12FAB
:101FA000D22FD72F7A08031DD62FD72FE52F003039
:101FB000F3000030F2000030F1000030F0007A0849
:101FC000031DE32FE42FE52FF8017A1CE82FE92FFA
:101FD000EB2FF217F12F7F3083120313A00020089C
:101FE000F2057A0883120313A0000310200CA1004D
:101FF0002108F300F81FFD2FFE2FFF2FF317080015
:02400E00F23F7F
:00000001FF
